:020000041000EA
:1000000000B5324B212058609868022188439860DF
:10001000D860186158612E4B002199600221596106
:100020000121F02299502B49196001219960352056
:1000300000F044F80222904214D00621196600F024
:1000400034F8196E01211966002018661A6600F04E
:100050002CF8196E196E196E052000F02FF8012189
:100060000842F9D1002199601B49196000215960AB
:100070001A491B48016001219960EB211966A021F2
:10008000196600F012F800219960164914480160C1
:100090000121996001BC002800D000471248134993
:1000A000086003C880F30888084703B5996A0420EC
:1000B0000142FBD001200142F8D103BD02B5186610
:1000C0001866FFF7F2FF186E186E02BD00000240BE
:1000D000000000180000070000035F00212200005C
:1000E000F4000018222000A00001001008ED00E03C
:1000F00000000000000000000000000074B24E7A12
:1001000000200420F7010010C3010010C5010010F9
:10011000C1010010C1010010C1010010C101001097
:10012000C1010010C1010010C1010010C701001081
:10013000C1010010C1010010C9010010CB01001065
:10014000CD010010CD010010CD010010CD01001037
:10015000CD010010CD010010CD010010CD01001027
:10016000CD010010CD010010CD010010CD01001017
:10017000CD010010CD010010CD010010CD01001007
:10018000CD010010CD010010CD010010CD010010F7
:10019000CD010010CD010010CD010010CD010010E7
:1001A000CD010010CD010010CD010010CD010010D7
:1001B000CD010010CD010010CD010010CD010010C7
:1001C00000BE00BE00BE00BE00BE00BE00F04BF888
:1001D000103800BEF2EB8871D47C0510F47C051059
:1001E0003402001090A31AE700202149086006C8D5
:1001F00081F3088810471F48006800282FD10DA4FC
:100200000ECC002902D000F012F8F9E71A491B4A77
:10021000002000E001C19142FCD1194988471949E9
:1002200088471949884700BEFDE701C901C29A42C3
:10023000FBD37047F47C0510C00000207C20002018
:10024000B09C05100000042000000420B09C0510A4
:1002500000100420001004200000000070470B482C
:1002600007F08AF90047EFF30580C0B2704700003D
:1002700008ED00E0000000D080200020B8450020FC
:100280000D5600106106001045570010575600002B
:1002900006005250ABB36053E0BC0410060052504D
:1002A000861C0302F0BC0410060052505422A29D8A
:1002B0000CBD041005005250DE65F468B09C0510BA
:1002C000F8B5C04610B5064C2378002B07D1054B76
:1002D000002B02D0044800E000BF0123237010BDB2
:1002E000282400200000000078B60410044B10B54C
:1002F000002B03D00349044800E000BF10BDC046F6
:10030000000000002C24002078B60410F0B5C6468A
:1003100000B5160080460D001F00002282B010E0DC
:100320006A6871683B687868944231D8121B8A42C7
:1003300000D90A0000902100280028F023FE7B68E5
:10034000E21828007368316828F0A2FF0400431CFB
:10035000E6D1404643462C00083018602B6808342C
:10036000A34210D0424613604346AA689A604346AF
:100370006A6840465A6000232C606B602B7202B0A2
:1003800080BCB846F0BD1022210008F017FAEEE755
:1003900013000249220002481EF074F878B60410D7
:1003A00090B60410F0B55746DE464E464546E0B5D9
:1003B000A3B006AB0493002304AC23726360884BA4
:1003C0009A4608F08DFBC0B23E28FAD10023994628
:1003D0004B460093002153466268200028F0D2FD6E
:1003E00008F07EFBC5B23E2DF2D03B2D16D06768DB
:1003F000236806AA7E1C934200D19DE0A268964223
:1004000000D98FE04A46DD55236866609A5508F0AA
:1004100067FBC5B23E2DDBD03B2DE8D127680CAB86
:1004200066680A93002F00D198E01C960F2E00D921
:1004300084E0012E00D0C9E028213B7802AA52189E
:1004400013701CAD0CAB4A460B969A5512AB109329
:10045000012310AE73601F3316AF338118AB280031
:1004600016933A727A609B4632003B000AA9FFF766
:100470004DFF2B681EAA90462068934273D006AAAF
:1004800090427FD023606B68A26805931E9B069301
:1004900000287CD02860AA604B466B6003702868F7
:1004A000404503D0AB68591C08F09EF938685845A0
:1004B00003D0B968013108F097F9306812AB98425F
:1004C00003D0B168013108F08FF90A980CAB98425B
:1004D00004D00C9B591C039308F086F9D0231B060B
:1004E0001B6D9B0717D5182008F06EF906002368CE
:1004F0000830984667683060002B5DD01C970F2F3E
:100500004BD8012F69D11B7833724B467760C355A6
:1005100030000AF011FF08F0E3FAC0B23E2800D024
:100520004FE755E701230022009339000023200004
:1005300028F0FCFB236865E70F2260E71CAD002272
:1005400029000AA828F076FB1C9B0A900C93320025
:10055000390008F033F91C9E0A9B74E7002E2DD158
:100560000CAB1CAD6FE76A68002A06D0012A28D0C0
:10057000414608F023F96A6820684B46626083545C
:10058000286889E723606B6805931E9B06934346A2
:100590002B601EAB984618007EE700222900300031
:1005A00028F048FB1C9B3060B3603A00414608F0DD
:1005B00005F91C9F3068A8E7002FA6D009481DF058
:1005C00001FF2B7A03706A682068D6E70CAB1CAD7C
:1005D000002E00D137E71800B9E7002F95D0E4E7E7
:1005E0004CEC0410C8B6041070B584B008F074FA6E
:1005F000192004F031F8D02380228021144C920479
:100600001B065A6220005A61C90000F023FA21003B
:10061000104801F0BFFD0026002303ADAB702E8013
:100620000399200000F070FBFA22FF200A49920093
:1006300001ABA8702E801E8098700B0000922000E5
:1006400000F02AFF05480AF0CDFE04B070BDC04698
:100650008821002034450020DC050000A50300109F
:1006600070B5FFF7C1FF044D044C280001F0A0FC59
:10067000200003F091FFF8E7882100203445002096
:1006800070B510480BF0AAFB0F4B00251A000C3276
:100690005A601A002432DA6124220C4C9D54103224
:1006A0009D549D601D731D6220000AF0C1FEFF2352
:1006B00000222364083CA33BE5542033E5521A335F
:1006C000E25470BDA03A0020344500209021002063
:1006D0008079704781717047C160FE2900DDFF217C
:1006E0008160704710B50C1C82B0090C0092048028
:1006F000817003226946033008F060F802B010BD33
:10070000F0B545464E46DE465746E0B586790400CC
:100710008846150083B0002E21D14369C7689B46E7
:10072000036999468368380019009A4606F056FF17
:100730004B4658435844A84209D2002B11D10322FA
:100740002100404608F03AF80123013623613000C9
:1007500003B0F0BCBB46B246A946A046F0BD002699
:10076000F5E74A46534620789E1AE3787043534390
:100770005146C01806F032FF43464A46187060786A
:100780002379704353435146C01806F027FF434670
:1007900058704B46A078514646436079584330180C
:1007A00006F01CFF43469870380007F029FA06004F
:1007B00050460F0007F024FA02000B003000390009
:1007C00007F087F95B460600E81A0F0007F014FAF5
:1007D00000900191484607F013FA32003B0007F001
:1007E00096F902000B000098019907F060F93200B9
:1007F0003B0007F06EF907F0CFFA07F019FA48440A
:10080000012620618245A2DC03224046E11C07F05C
:10081000D5FFA6719BE7C04683688B4200DD0B00C5
:10082000036170470069704741617047F0B5DE466B
:1008300057464E464546E0B587B0040004F0D8FB65
:10084000002900D1F9E0FA220023920006F030FFDF
:1008500083469E23E35C002B00D17BE063899946AD
:10086000002B70D0270005AB0025984640379C230D
:10087000E05A4946401906F0B1FE0E004B1E9A465A
:1008800003D201235B424B449A4600213800FFF714
:1008900021FF5246A36D71008E19F05C9E19510024
:1008A0007278514412020243B07800040243C85CDB
:1008B0005B185E7899783602304394260904014328
:1008C0003800FFF70FFF6189A05B06F0AFFE81B231
:1008D0003800FFF701FF9023E2583800515D039282
:1008E000FFF79AFF6189A05B06F0A0FE9C22982387
:1008F000A15A80B24143E05809183800FFF794FF2D
:100900005A4641463800FFF7FBFE002815D0380054
:10091000FFF788FF90234146E3584246585503931A
:100920002000434689785B781278083000912900CE
:100930000AF0D6FF5C230122E25463890135ADB28F
:100940009946AB4293D807B0F0BCBB46B246A94625
:10095000A046F0BD61890029F5D005AB98469C23DF
:10096000270099460C3B00259A4640374B46E65AED
:10097000AE1B00D57618701C06F030FE38000391CF
:100980000021FFF7A7FE73009E19039BA06D1B04B7
:10099000315C1A0C8619DB0B9B18727812020A4321
:1009A000B1781E5C0904C3180A435978380009025B
:1009B0000E439978090431439426FFF793FE618929
:1009C000A05B06F033FE81B23800FFF785FE534688
:1009D000E3583800595DFFF71FFF6189A05B06F0FF
:1009E00025FE4B46E15A982380B24143E05809184E
:1009F0003800FFF719FF5A4641463800FFF780FEDE
:100A0000002820D03800FFF70DFF53464146E35839
:100A1000424658554346200089785B781278083062
:100A2000009129000AF05CFF5C230122E2540135A9
:100A30006189ADB2A94299D885E7FA21890006F00B
:100A4000F5FD834605E701356189ADB2A9428DD830
:100A500079E7C04670B505000400083528000AF0A3
:100A600003FD522128000AF02BFD002128000AF086
:100A700081FE28000AF0F6FC606E002801D007F025
:100A8000AFFE63895800C01807F0A2FE6066A06E32
:100A9000002801D007F0A4FE63895800C01807F0B1
:100AA00097FEA066E06E002801D007F099FE6089ED
:100AB000400007F08DFEE066206F002801D007F0AF
:100AC0008FFE608907F084FE2067606F002801D0E8
:100AD00007F086FE6089800007F07AFE6067A06FED
:100AE000002801D007F07CFE608907F071FE90239A
:100AF000A067E058002801D007F072FE608907F077
:100B000067FE9023E050A06D002801D007F068FE3A
:100B100063895800C01807F05BFE6389A065002B4D
:100B20000ED0002300220120216FCA54656F990066
:100B30004A51A16FC854618901339BB29942F3D8DD
:100B400004F056FA002906D0FA220023920006F09B
:100B5000AFFD206670BDFA21890006F067FDF8E759
:100B60004089704710B580244A1E92B20300E40009
:100B70000020A24204D2083318000AF075FC0120BC
:100B800010BDC04610B5438982B001AC8B420BD377
:100B9000002909D0836D4A005118591803222000FA
:100BA000033907F00BFE02E000232380A370627874
:100BB0002078A37812021B041043184302B010BD22
:100BC00070B505004089002866D0A96D8B0754D107
:100BD000431E062B51D982085400A4180B00002292
:100BE000A40064181A605A609A600C339C42F9D1D0
:100BF000032304009C43034215D063001B19CE1845
:100C000032707270B270661C86420CDADE1C8E196D
:100C1000023432707270B270A04204DD0633CB1819
:100C20001A705A709A700124AE6F00280DD12200FC
:100C30000121300007F0BCFD2B78022B10D0012BD6
:100C400018D05C230122EA5470BD013884B201340B
:100C500022000121300007F0ABFD2B78022BEED1F2
:100C600022000121300007F0A3FD00237C222B701D
:100C7000AB52E6E700232B70E3E70B0000220021D4
:100C800001311A705A709A7003338142F8DB0124E3
:100C9000AE6F0028CBD0D8E72B78022BCFD1E4E77A
:100CA00070B545890400002D18D0866F2A000121F7
:100CB000300007F07DFD2378022B05D0012B00D0FA
:100CC00070BD00232370FBE72A000121300007F0EC
:100CD0006FFD00237C222370A352F1E70378022BDF
:100CE000ECD1F6E70378022B02D0012B06D0704737
:100CF00001227A33C2520233C254F8E79622815C51
:100D00000029F4D18354F2E7F0B5D6464F46464663
:100D1000C0B582B00191037804004589022B38D018
:100D200001AB5A781F789B7892469C46002D26D0BE
:100D3000012102220123884619E0A06D5900814655
:100D40005046C91803394944487060460F7088708E
:100D5000A06FA66F591E4018715C002901D1414651
:100D60000170AA420BD8013301329BB292B2002B20
:100D7000E3D1A16F481E01780029F4D1EFE75C238D
:100D800001220120E25402B0E0BCBA46B146A846B6
:100D9000F0BD002D04D02A000121806F07F008FD6E
:100DA00000237C222370A352BAE7C04670B582B0FC
:100DB0000192037805000C004689022B20D0B44232
:100DC0001BD8002C19D0AE6D6300B44601AA1B19C4
:100DD00050789178033B127863441A705870997078
:100DE000AB6F013C1A191B5D002B01D1013313704D
:100DF0005C2301220120EA5400E0002002B070BD13
:100E0000002E04D032000121806F07F0D1FC0023B6
:100E10007C222B70AB52D2E7F0B557464E46454682
:100E2000DE46E0B583B00193037805000C0017009F
:100E30004689022B3ED0B44234D8002C32D07B1EDF
:100E4000E3189BB2B3422DD8002B2BD03A19944211
:100E50003CDA01AB1978A86F894659789B788846A7
:100E60009C4601239B4616E0AF6D6100BA464F4693
:100E70000919033951440F7047464F7067468F7008
:100E8000013BC118C35C002B01D15B460B700134E0
:100E9000A4B294421ADA2300B442F1D8002CE3D170
:100EA0000023EDE7002003B0F0BCBB46B246A946E4
:100EB000A046F0BD002E04D032000121806F07F063
:100EC00077FC00237C222B70AB52B4E75C23012219
:100ED0000120EA54E7E7C04610B5418900290AD04D
:100EE0000023846F03E001339AB2914202D9E05C9F
:100EF0000028F8D110BD0120FCE7C046F0B5D64669
:100F00004F464646C0B582B0050001920B1C002931
:100F100000D101239BB2994604F06AF8002933D02E
:100F2000FA220023920006F0C3FB82466B89002B55
:100F300023D00023002498466B6E67003E19981951
:100F4000AB6D0322991907F039FCAB6E0322981997
:100F500001A907F033FC4A46EB6E5146FA5242466D
:100F60002B6F1A556A6FA30099504246AB6F1A5502
:100F70006B890134A4B2A342DED8012002B0E0BCE8
:100F8000BA46B146A846F0BDFA21890006F04EFBEC
:100F90008246CBE770B582B0040004F029F800293E
:100FA0003FD0FA220023920006F082FB050088233E
:100FB000E258083BE15A0433E35A88181B18AB4245
:100FC0001BD87C22A35A002B04D0013B9BB2A35216
:100FD000002B2CD00022822601ABA15B1A809A70D4
:100FE0002000019AFFF78AFF8623A05BE35AC0180E
:100FF00088234519E55002B070BDAA42FBD8A8422B
:10100000F9D9A36D1A78002AF5D15A78002AF2D1BD
:101010009B78002BEFD18C332000E258FFF76EFF56
:10102000E9E7FA21890006F001FB0500BFE77E33FE
:10103000E35C002B02D000232370DCE70632A15AC8
:1010400001AA138093702000019AFFF757FFF2E77F
:10105000F0B583B00193438905000E00140093425C
:1010600034D3002A32D05700436EBF18033FD8193B
:10107000AB6D0322D91907F0A1FBAB6E0322D8197F
:1010800001A907F09BFB154BE96EE3185B00321CCE
:10109000002E00D101225A5200232A6F661E93555A
:1010A00003F0A6FF0E4B9C466B6F64449C46A40065
:1010B000644400290DD0FA220023920006F0F8FAC9
:1010C0000022AB6F206001209A5500E0002003B0A1
:1010D000F0BDFA21890006F0A9FAF1E7FFFFFF7FD2
:1010E000FFFFFF3FF0B54546DE4657464E46E0B5AA
:1010F00085B00392037805000C00022B4ED003ABA1
:101100001A7892465A789B7891469B46231C002C6D
:1011100000D101239BB2019303F06AFF002937D06D
:10112000FA220023920006F0C3FA02906B89002B8A
:1011300026D00023002498466B6E67003E1998194C
:10114000AB6D0322991907F039FBAB6E019A9C46EF
:101150005346664433704B4673705B46B370EB6E18
:101160000299FA5242462B6F1A556A6FA3009950A2
:101170004246AB6F1A556B890134A4B2A342DBD847
:10118000012005B0F0BCBB46B246A946A046F0BD62
:10119000FA21890006F04AFA0290C7E74289002A3C
:1011A00003D00121806F07F003FB00237C222B700A
:1011B000AB52A4E7F0B54F464646D646C0B582B01E
:1011C0000193037804000E0015004789022B4CD0D0
:1011D000BD423ED8002D3CD001AB1A786F0092463C
:1011E0005A789B787F199846636E033FD819A36D90
:1011F0009146D919032207F0E1FAA36E321C9C46EE
:10120000534667443B704B467B704346BB701D4B57
:10121000E16EEB185B00002E00D101225A52002330
:10122000226F6E1E935503F0E3FE174B9C46636FCF
:1012300065449C46AD006544002911D0FA22002384
:10124000920006F035FA0022A36F286001209A551B
:1012500000E0002002B0E0BCBA46B146A846F0BDAE
:10126000FA21890006F0E2F9EDE7002F04D03A00F8
:101270000121806F07F09CFA00237C222370A35287
:10128000A6E7C046FFFFFF7FFFFFFF3FF0B54546E3
:1012900057464E46DE46E0B51E00037804008846F9
:1012A0001700458985B0022B5AD0AF4250D8002F85
:1012B0004ED0731EFB189BB2AB4249D80020002BC6
:1012C00047D0002E45D00EAB1A7892465A7803923A
:1012D00042469B789B464346002A53D09BB20193DB
:1012E00003F086FE002947D0FA220023920006F080
:1012F000DFF90290F619731E984600237D1EADB2E9
:101300009946A84522DD636E6F007E199819A36D7A
:101310000322991907F052FAA36E019A9C4653468C
:1013200066443370039B029973705B46B370E36E3F
:10133000FA524A46236F5A55626FAB0099504A469B
:10134000A36F5A550135ADB2A845DCDC012000E0A1
:10135000002005B0F0BCBB46B246A946A046F0BD91
:10136000002D04D02A000121806F07F021FA00230C
:101370007C222370A35298E7FA21890006F056F9DF
:101380000290B7E70123A9E70078023843425841A9
:10139000C0B27047037810B50400022B00D010BD16
:1013A0004289002A03D00121806F07F001FA00234F
:1013B0007C222370A352F2E70378022B00D07047FF
:1013C00001227A33C2520233C254F8E70378022B67
:1013D00000D0704701227A33C25200220233C25435
:1013E000F7E7C046F0B546464F46D646C0B51500AD
:1013F00008AA168809AA1288040090460AAA177833
:101400000A002A4335D01A00324332D00A1C002980
:1014100000D1012292B291461A1C002B00D1012268
:1014200093B29A462378022B2ED002234246237091
:101430007A33E252534649461B04220019430B00FB
:1014400036048032354328C27E23E75403F0D0FDB2
:10145000002914D0FA220023920006F029F98823EB
:10146000E0500BAB1A888C3422809B780120A3704B
:1014700000E00020E0BCBA46B146A846F0BDFA2123
:10148000890006F0D3F8EAE76289002ACDD001216D
:10149000A06F07F08DF9C8E7F8B54E464546DE4621
:1014A0005746E0B515000AAA16880A0004002A4328
:1014B0003ED01A0032433BD00BAA1078577892786E
:1014C000804691460A1C002900D1012292B2924620
:1014D0001A1C002B00D1012293B29B462378022BC9
:1014E00032D00223002223707A33E2525B46524606
:1014F0001B041A432100130032041543803128C114
:1015000001227E23E25403F073FD002917D0FA2252
:101510000023920006F0CCF888234246E0500433C2
:10152000E2544A460133E75401330120E25400E01B
:101530000020F0BCBB46B246A946A046F8BDFA2141
:10154000890006F073F8E7E76289002AC9D0012113
:10155000A06F07F02DF9C4E710B54289002A03D027
:101560000121806F07F024F910BDC046F0B5454653
:10157000DE4657464E46E0B583B0050003F038FD21
:10158000002900D188E0FA220023920006F090F8AA
:1015900080466A890126002A77D02F005C234037D5
:1015A000994627E09A463800A244FFF791F853463F
:1015B00018703800FFF736F92B6F18556A89B24258
:1015C00010D3002E0ED06B461C7958799979730090
:1015D0009B19033B9A46AB6D9C46534663441C7073
:1015E00058709970012349466B54731C9BB2964204
:1015F0004BD21E00AB6F741EA4B21B5D002BF4D146
:1016000000213800FFF766F8630019199A46AB6E9F
:101610005A5C581893465B46427812021A43837804
:10162000686E1B0484461A436B6E8C445B5C614697
:101630004878897800020343090419433800FFF70A
:1016400051F85246EB6E3800D15AFFF745F82B6F30
:101650003800195DFFF7E0F86A6FA3009958380069
:10166000FFF7E2F84246380001A9FFF749F8AB6FEF
:10167000002897D19C4638006444FFF729F8207071
:101680006A89731C9BB29642B3D303B0F0BCBB46CD
:10169000B246A946A046F0BDFA21890005F0C6FF72
:1016A000804676E7F0B54546DE4657464E46E0B5FD
:1016B00087B00591049245890400002D74D004ABD5
:1016C0005E791F799B79039304AB1B78994604AB31
:1016D0005B789B4604AB9B789A460378022B6BD0D1
:1016E000A36D039A01219A705C221F705E70A15451
:1016F000012D57D06A1EDC1C5B4690464A46514677
:101700009B1BD21B0293039B0192AA1E5743564375
:10171000C91A5A4301234F445E44A9468B461D0013
:1017200092440135ADB2A94532D34146380005F0A7
:1017300055FF06F065FA02000B0006F0E8F9234AAF
:10174000234B06F0E4F906F097FA4146207030008A
:1017500005F044FF06F054FA02000B0006F0D7F93A
:101760001A4A1B4B06F0D3F906F086FA4146607020
:10177000504605F033FF06F043FA02000B0006F076
:10178000C6F9124A124B06F0C2F906F075FAA070BB
:10179000019B03349C46029B67449C46DA446644A2
:1017A000A945BED8012000E0002007B0F0BCBB4630
:1017B000B246A946A046F0BD2A000121806F06F07E
:1017C000F7FF00237C222370A35289E7101010102A
:1017D0001010703FF0B545464E46DE465746E0B520
:1017E00087B00593438906000C001500984699427E
:1017F00000D99DE0002900D19AE0531E9B46CB18EA
:101800009BB2434500D993E0002B00D190E0002A21
:1018100000D18DE004AB1B799A4604AB5F799B79CC
:1018200001930378022B00D18AE0B26D63009446E5
:10183000049252461B19033B63441A70019A5F706D
:101840009A705C230122F254012D6FD0534610A9E7
:101850000878AA1EC31A0093534653439A464B78FE
:101860008244D81B5743B946029099448B7801991A
:1018700001264A43581AD318424698462B004F4631
:1018800055469A460134A4B201900392039BA342A9
:101890003DD3002C3BD0049A630091461B19033BB7
:1018A00059462800994405F099FE06F0A9F902006E
:1018B0000B0006F02CF9294A294B06F028F906F00E
:1018C000DBF94B4659461870380005F087FE06F0E4
:1018D00097F902000B0006F01AF9204A204B06F097
:1018E00016F906F0C9F94B4659465870404605F0BE
:1018F00075FE06F085F902000B0006F008F9184B9A
:10190000164A06F004F906F0B7F94B469870009BAA
:1019100001369C46029B65449C46019B67449C465D
:101920000134B6B2A4B2E044B245AFD8012000E021
:10193000002007B0F0BCBB46B246A946A046F0BDA9
:101940004346002B04D042460121806F06F030FF51
:1019500000237C223370B35267E7C046101010108A
:101960001010703FF0B54546DE4657464E46E0B58E
:101970008FB006910B920A93438980460393002B04
:1019800000D1C5E00AAB1D795C799E791B789A4637
:101990000AAB5B7899460AAB9F780378022B00D19B
:1019A000C2E043460322996D586E06F007FF434696
:1019B0009B6E06991D705C709E704346DA6E0B1C20
:1019C000002900D1ACE0138042460023126F13704F
:1019D00003F00EFB43465B6F9B46002900D1AFE04E
:1019E000FA220023920005F063FE5B46424618602F
:1019F0000023926F4146137001225C33CA54039B4B
:101A0000012B00D18EE05A1E93465246521B07927C
:101A10004A46023B121B5C435D437343099222001A
:101A2000DB19029301234A440192BA1B9946AA4446
:101A3000089215E04A460D9B40460699FFF708FBC1
:101A4000079B099A9C46E2449446019B089A63448A
:101A500094460193029B63440293039B4B4561D9D7
:101A60005946504605F0BAFD06F0CAF804000D00CC
:101A70000198594605F0B2FD06F0C2F806000F00C5
:101A80000298594605F0AAFD06F0BAF84B46013314
:101A90009BB2049005912200994620002B0029005A
:101AA00006F035F8294A2A4B06F031F806F0E4F83A
:101AB0000AAB187332003B003000390006F027F8FB
:101AC000224A234B06F023F806F0D6F80AAB5873E7
:101AD0000498059902000B0006F019F81C4B1B4AEC
:101AE00006F015F806F0C8F80AAB987343461B7861
:101AF000022B9FD143465A89002A03D00121986FB7
:101B000006F056FE424600237C211370535291E7A3
:101B100000200FB0F0BCBB46B246A946A046F0BDBF
:101B2000012350E70120F4E70121039A806F06F0BA
:101B30003FFE00234246414613707C228B5230E721
:101B4000FA21890005F072FD4FE7C0461010101011
:101B50001010703FF0B5DE46454657464E46934658
:101B6000E0B58FB00691039342898046934500D932
:101B7000BCE05946002900D1B8E01900013B9A4663
:101B80005B4653449BB2934200D9AFE0002B00D197
:101B9000ACE0002900D1A9E018AB1E785D789C78F4
:101BA0000378022B00D1ABE00DAB1E705D709C7012
:101BB0005A460699994640460D9BFFF749FA5C2321
:101BC00001224146CA54039B012B00D196E019AB78
:101BD00018789A785978831B0893039B023B5E43DD
:101BE00030180090481B5D43634369189B180191AE
:101BF0000293111B01235A4609909B460A910B92AE
:101C00001CE04B46079A1B6840460699FFF720FAEE
:101C10005B46089A013394469BB2099A9B46009B07
:101C20006344944600930A9A019B6344944601934B
:101C3000029B63440293039B5B455FD95146009826
:101C400005F0CCFC05F0DCFF04000D0001985146C6
:101C500005F0C4FC05F0D4FF06000F0002985146C1
:101C600005F0BCFC05F0CCFF0B9B049005915B4498
:101C70009BB22200079320002B00290005F047FFAC
:101C8000264A274B05F043FF05F0F6FF4B4632008E
:101C9000187039003B00300005F039FF1F4A204B17
:101CA00005F035FF05F0E8FF4B465870049805999C
:101CB00002000B0005F02BFF194B184A05F027FF17
:101CC00005F0DAFF4B46987043461B78022B98D1FB
:101CD00043465A89002A03D00121986F06F068FD17
:101CE000424600237C21137053528AE700200FB034
:101CF000F0BCBB46B246A946A046F0BD0120F6E7BF
:101D0000002A03D00121806F06F052FD00234246D5
:101D1000414613707C228B5246E7C04610101010CB
:101D20001010703F0078013843425841C0B27047EC
:101D3000037870B504000E001500022B38D0012383
:101D4000002223709333E6520233E25403F050F939
:101D5000002928D0FA220023920005F0A9FC98233C
:101D60000022E0500433E2520233E55465890A3B15
:101D70002900E05A05F05AFC80B213280FD99723A6
:101D800001229020E25400210023002D06D0225889
:101D9000D154628901339BB29A42F8D870BD0022B7
:101DA0009723E254FAE7FA21890005F03FFCD6E7D1
:101DB0004289002A03D00121806F06F0F9FC7C23C0
:101DC0000022E252BBE7C0460378012B00D07047E7
:101DD00000230370FBE7C0460378012B00D0704757
:101DE0009622815C0029FAD18354F8E7F0B5DE46EB
:101DF00057464E464546E0B50378040083B0012BB4
:101E000006D003B0F0BCBB46B246A946A046F0BD22
:101E10009633C35C002B4ED103F0EAF8002944D07E
:101E2000FA220023920005F043FC07009C236689F8
:101E3000E55A083B3100E05A05F0F8FB982183B2DF
:101E40006A1C534360581B18BB42DAD89723E35CE3
:101E5000002B37D0002E00D19CE00023002208394F
:101E60006058C254668901339BB29E42F8D89C23C5
:101E7000E35A002B04D19622A25C002A00D07FE016
:101E80009C2201339BB2A352B342BAD303F0B0F801
:101E900000297AD0FA220023920005F009FC982349
:101EA0000022E0500433E252ABE7FA21890005F04A
:101EB000BDFB0700BAE7FEF7B9FC03F099F800296B
:101EC000F3D0ADE79E23E35C002B2DD0002E61D034
:101ED00008239A46543399465B3B98469B33002728
:101EE0009B46A24419E0AD1B0135ADB26E007519D9
:101EF000A36D50469C466544A9786B782A7800917A
:101F0000390009F0EDFC4B464246E2540137668940
:101F1000BFB2BE42ABD95B46E55A7D19ADB2B54200
:101F2000E1D26B005D19E3E7002E33D008239A4617
:101F3000543399465B3B98469B3300279B46A2440B
:101F400017E06B005D19A36D50469C466544A97867
:101F50006B782A780091390009F0C2FC4B46424662
:101F6000E25401376689BFB2BE4200D87FE75B46C4
:101F7000E55A7D1BE5D5013E75196E007519E2E73E
:101F8000002396222370A3543BE7FA21890005F031
:101F90004DFB84E7002D07D19623E35C002BEFD1A6
:101FA0009C230122E25271E79C23E2526EE7C04675
:101FB00070B50378040082B0012B50D0022B2DD0D5
:101FC000002B0DD05C23E35C002B01D102B070BD6F
:101FD0002000083009F0A6FB5C230022E254F5E75C
:101FE000FFF7C4FA5C23E35C002BEFD06389002B7E
:101FF000EED0260000250836A36D68009C464019E7
:102000006044437802788078A9B20090300009F0EB
:1020100067FC63890135AB42EEDCD3E7FFF7A6FA34
:102020002378022B21D05C23E35C002BCED0638984
:10203000002BCDD0260000250836A36D68009C46F5
:1020400040196044437802788078A9B2009030004B
:1020500009F046FC63890135AB42EEDCB2E7FFF7DD
:1020600085FA2000FFF7C2FEACE7A36F1B78002BB8
:10207000D9D02000FEF78EFFD5E7C046436810B5E3
:102080008B4215D3541C09D0002A00D110BD5B1A15
:10209000934208D81A0026F0A3FEF7E7002203684F
:1020A00041605A54F2E713001A0026F099FEEDE75A
:1020B0000A00024802491CF0E5F9C04690B6041037
:1020C000F4B6041070B50C0022000968083205004F
:1020D0000368914218D0083083420DD029606168AE
:1020E000A8686960A168A960002B0AD02360A0607D
:1020F000002262601A7070BD636829606B60A3681B
:10210000AB6013002260F3E76268002A06D0012A60
:1021100009D0180006F052FB62682B6800216A6043
:1021200099542368E4E7227A1A7062680368F5E735
:1021300070B505000E0082B000291DD0541A01941C
:102140000F2C0BD80068012C1BD10B780370019C5D
:10215000286800236C60035502B070BD002201A9FD
:1021600026F068FD019B2860AB602200310006F07C
:1021700025FB019C2868ECE7002A05D100240068B3
:10218000E7E7002CE5D0F0E701481CF01BF9C0465A
:10219000C8B604100160704770B51649040088B0D5
:1021A0001C3027F0D5F8002801D108B070BD0023FD
:1021B00002AD03932B72236A2800591C04AE0296C9
:1021C00026F02AFE3E2300220399009328003D3B7F
:1021D00026F06AFE226AE169280026F097FF02983D
:1021E00006F0E2FB0298B042DFD00499013106F01C
:1021F000FBFADAE74CEC0410F0B5DE4657464E46E3
:102200004546E0B583460C0089B0092900D8A9E00D
:10221000632962D9FA239B00994200D2AFE0604B58
:10222000994200D8B9E002AB9846042504AB2D22B0
:10223000052140469946029326F01AFD029B019320
:102240009C46584B013D9A4665442000642105F0A8
:10225000EDF920004E00642105F0E8F953469B1982
:102260005B7827006B7053469B5D04002B704C4BD2
:10227000023D9F42E9D8FA239B009F423BD2019B3B
:102280003034E4B21C705B46D869029B4B4541D0A8
:102290005A462432904250D059465A46526ACB612F
:1022A00041465B46496819620499596200284CD03E
:1022B000434618609A6000234246536003700298B8
:1022C000484503D09168013106F08EFA09B0F0BCA0
:1022D000BB46B246A946A046F0BD02AB98462D22A9
:1022E00004AB022140469946029326F0C1FC029BB2
:1022F00001932C4B9A46534664001B195B78019A54
:10230000537053461C5D019B1C705B46D869029B51
:102310004B45BDD143465A68002A08D0012A1AD03D
:10232000494606F04BFA43465A685B46D8695B4615
:102330001A62002383540298BDE75A46D36142468D
:102340005B4652681A62049A5A624B46029304AB87
:1023500099461800AFE71B7A037043465A685B46FC
:10236000D869E4E702AB98462D2204AB0121404630
:102370009946029326F07CFC029B01937FE702259D
:10238000032102AB98462D2204AB404699460293A6
:1023900026F06EFC029B019352E703250421F0E72F
:1023A0000F27000000B90410F0B54E46DE46574630
:1023B0004546E0B50A0A0B0C99B0D2B2DBB2CEB2F8
:1023C0009146039005910293092E00D813E2632EE3
:1023D00000D92DE106AF08AB2D22022138009A4624
:1023E000069326F045FCE24A76009119069B49784F
:1023F000925D59701A7001230093DE4B0022002178
:10240000380026F0BFFD082290460EAD0C950368FB
:10241000804406000CAC434500D12FE20C93836846
:10242000A3607368002263604346336000237360D7
:1024300033722C33009320002B3B616826F034FD6F
:102440000822834614AE12AB1296984603685A448B
:102450000492934200D10BE21293434682689A6041
:102460005A46434652685A605B46049A1A600023F3
:102470005A46536013724246039B52681C3318003D
:102480001299039326F042FE1298B04204D04346BC
:102490009B68591C06F0A8F90C98A84203D0A368C1
:1024A000591C06F0A1F90698504503D0B9680131CE
:1024B00006F09AF94B46092B00D88BE14B46632B6B
:1024C00000D909E106AF08AB2D22022138009A4657
:1024D000069326F0CDFB4B465900A54B069A58189B
:1024E0005B5C40781370012350700093A14B002275
:1024F0000021380026F046FD082281460C9503682D
:102500004A449346934200D1ACE10C938368A360A4
:102510004B465B685A4663604B461A604A46002346
:10252000536013722C33009300222B3B2000616810
:1025300026F0BAFC08228146129603684A44934664
:10254000934200D188E11293434682689A604A46DA
:10255000434652685A604B465A461A6000234A4620
:1025600013725360434612995A68039826F0CEFDC1
:102570001298B04204D043469B68591C06F034F9C7
:102580000C98A84203D0A368591C06F02DF90698B0
:10259000504503D0B968013106F026F9029B092B9A
:1025A00000D838E11F00632B00D9E5E02D2202217D
:1025B00020000C9526F05CFB6D4A790050180C9BAE
:1025C000525C40781A705870012300220093002159
:1025D000684B200026F0D6FC08229146129603682C
:1025E000814407004B4500D14EE112934346BA683F
:1025F0009A6043467A685A604B463B6000233B72C0
:102600007B60434612995A68039826F07FFD129822
:10261000B04204D043469968013106F0E5F80C98C1
:10262000A84200D1CFE0A168013106F0DDF8CAE090
:102630000CAC2D22032120000EAD0C9526F018FBCA
:102640003000642104F0F2FF494B49005A180C9FF6
:102650005B5C52787B70BA706421300004F0E6FF56
:102660002C2330303870009300222B3B200061680F
:1026700026F01AFC0822924614AE12AB1296984627
:10268000036882440700534500D103E11293434697
:1026900082689A6043467A685A6053463B600023DA
:1026A00042463B727B60039B52681C3318001299B0
:1026B000039326F02BFD1298B04204D043469B684A
:1026C000591C06F091F80C98A84200D1F2E6A368D4
:1026D000591C06F089F8EDE62D22032120000C9507
:1026E00026F0C6FA4846642104F0A0FF204B4900BA
:1026F0005A180C9F5B5C52787B70BA706421484614
:1027000004F094FF2C2330303870009300222B3BD0
:102710002000616826F0C8FB0822914612960368E3
:10272000814407004B4500D1BAE0129343468268CA
:102730009A6043467A6803985A604B463B60002390
:102740003B727B60434612995A6826F0DFFC129870
:10275000B04204D043469B68591C06F045F80C98DB
:10276000A84200D11AE7A368591C06F03DF815E706
:1027700000B90410E4BC04102D2203214046129637
:1027800026F076FA029D6421280004F04FFF474BA3
:1027900049005A18129C5B5C52786421A2706370E5
:1027A000280004F043FF4346303020705A681299E5
:1027B000039826F0ABFC1298B04204D043469968C7
:1027C000013106F011F819B0F0BCBB46B246A9467B
:1027D000A046F0BD06AF08AB01212D2238009A4675
:1027E000069326F045FA4946069B303119700223BC
:1027F00000932F4B7BE606AF08AB2D22012138005A
:102800009A46069326F034FA069B30361E70022351
:102810000093274BF2E52D22012120000C9526F094
:1028200027FA02990C9B3031197002230022009381
:1028300000211F4B200026F0A5FB0822914612968E
:102840000368814407004B4500D0CEE6102249467C
:10285000300005F0B3FFCCE610225946300005F0F9
:10286000ADFF74E610225946280005F0A7FF4FE699
:1028700011003000102205F0A1FFF1E541462800CB
:10288000083205F09BFFCCE549463000083205F0E0
:1028900095FFAEE651463000083205F08FFFF9E6AD
:1028A00049463000083205F089FF42E700B90410BC
:1028B00008B70410F0B5C646472300B5C35C040052
:1028C0008AB01D2B12D8A54A9B00D3589F46462399
:1028D000C18EC25C0068FFF72BFA04230093A04B63
:1028E00020000021226A1C3026F04CFB34230022F9
:1028F000E2540AB080BCB846F0BD0068FFF76CFA3D
:10290000EBE70068FFF760FAE7E70068FFF70AFA0D
:102910000028E2D105230093924BE1E725004035E2
:102920002E88438F028FC18E01A80680AD788570F6
:10293000A08F00902068FEF7AFFD0028EAD0CCE71A
:10294000250040352E88438F028FC18E03A8068054
:10295000AD7885704620205C0290E08F0190A08FBA
:1029600000902068FEF73EFD0028D3D0B5E7006850
:10297000FEF72CFDB1E70068FEF71EFDADE700682D
:10298000FEF708FDA9E70068FEF7FEFC0028C1D0AD
:10299000A3E72100438F078FC68E056803224331CA
:1029A00001A8984605F00AFF22006B4640321188C4
:1029B00028001980927831009A7043463A00FFF758
:1029C000C9F80028A6D088E7050043234335C25C38
:1029D000C18E6878AB78000202431B041343206861
:1029E000226CFEF7BFFF002894D076E70100078F26
:1029F000C68E056803224331684605F0DFFE3A00C3
:102A000031002800236CFEF7E5FE002800D181E7A5
:102A100063E74323C35C43304178827809020B4368
:102A20001204216C20681A43FEF73CFE002800D1F6
:102A300070E752E72500438F028FC18E684640350C
:102A40002E880680AD7885702068FEF71FFC002870
:102A500000D15FE741E7028FC18E036C0068FEF78B
:102A6000A9FB002800D155E737E7C18E026C00684A
:102A7000FEF738FB002800D14CE72EE70068FEF790
:102A80006BFD2AE70068FEF727FA002800D141E72E
:102A900023E7028FC18E036C0068FEF7BDF90028A2
:102AA00000D137E719E7C18E026C0068FEF77EF9A6
:102AB000002800D12EE710E7016C0068FEF724F92A
:102AC000002800D126E708E7C18E0068FEF75AF813
:102AD00004AB187002040002120E000E98705A70B7
:102AE00020000499FFF760FC00E7C18E0068FEF744
:102AF00039F8002800D10DE7EFE60068FEF730F85E
:102B000001002000FFF778FBF0E60068FEF7EAF826
:102B1000E3E60068FEF7C4F8DFE60068FEF750F869
:102B2000DBE606AD2A00104B049503CB03C21988DF
:102B3000200011809B7804AE93700B230593002333
:102B40001C303100F37426F0B7F80498A84200D185
:102B5000CCE60699013105F047FEC7E628B7041018
:102B600018B7041020B704100CB70410F0B5DE46F7
:102B70004E4657464546E0B500222C2199B0040048
:102B800026F0C2FB0600431C11D1002312AD2B809E
:102B9000AB706A782878AB7812021B041043184394
:102BA00019B0F0BCBB46B246A946A046F0BD08AA83
:102BB000904606926368226807009246984200D9C0
:102BC0001F005346002B00D10CE112970F2F00D9A4
:102BD000ECE0012F00D063E11B7806AA1372914646
:102BE00043464A4657600022DA559246069D39F020
:102BF000C3FF076839F0C0FF53460A22036003A9E8
:102C000028003EF07DFA039B01909D4200D15EE1D9
:102C100039F0B2FF0368222B00D15BE139F0ACFF41
:102C20000368002B00D1D9E00698404504D04B46FC
:102C30009968013105F0D8FD731CB21C00D1C8E0C1
:102C4000002B00D0DCE000222C21200026F05CFBD1
:102C50000600431C99D00EAA92460C926368226823
:102C600007009346984200D91F005B46002B00D115
:102C700001E112970F2F00D9D0E0012F00D01EE103
:102C80001B780CAA1372914653464A46576000229D
:102C9000DA5593460C9D39F06FFF0368984639F07A
:102CA0006BFF5B460A22036004A928003EF028FA65
:102CB000049B83469D4200D109E139F05DFF036822
:102CC000222B00D106E139F057FF0368002B00D119
:102CD000C7E05B460C98DBB29846504504D04B46A3
:102CE0009B68591C05F080FD731CB21C00D190E05C
:102CF000002B00D0CAE000222921200026F004FB8E
:102D0000002205002C21200026F0FEFA0022854238
:102D100071D92C21200026F0F7FA2268636814AEDE
:102D2000924604001296984200D91C005346002B8C
:102D300000D1A6E00C940F2C00D982E0012C00D029
:102D4000B6E01B7812AD2B72330000226C601A556E
:102D5000129B9246994639F00FFF03689B4639F063
:102D60000BFF53460A22036005A948463EF0C8F906
:102D7000059B0400994500D1A9E039F0FDFE0368E8
:102D8000222B00D1A6E039F0F7FE0368002B6DD0AE
:102D90001298E4B2B04203D0AB68591C05F024FD90
:102DA000019BAC702B7043466B70F2E606AB994604
:102DB00012AD00221800290025F03CFF4B46129A64
:102DC00006909A603A00514605F0F8FC129F069B67
:102DD00007E7002322686360137034E739F0CCFE04
:102DE000076021E706AA43469146002F00D1F8E686
:102DF0003A481BF0E7FA2921200026F085FA8CE7F3
:102E000062689A4200D91A000021200025F0E8FFEC
:102E100019E700232268636013706CE70CAB9946D6
:102E200012AD00221800290025F004FF4B46129A2B
:102E30000C909A603A00594605F0C0FC129F0C9B1A
:102E400023E712AD00224946280025F0F3FE0C9B33
:102E50001290AB602200514605F0B0FC0C9C129B16
:102E600073E739F089FE4346036032E739F084FEA8
:102E70005B4603608CE7002FBAD10CAA53469146FB
:102E800003E7002CB4D1330012AD5EE762689A42CA
:102E900004D80021200025F0A3FF2CE71A00F8E752
:102EA00006AA43469146002F00D19AE6404689E79C
:102EB000330012AD002C00D147E73000CAE70CAA5E
:102EC00053469146002F00D1DFE65046B2E7044852
:102ED0001BF090FA02481BF0BDFAC046C8B60410B9
:102EE000A0B70410F0B5CE46474680B500222C218D
:102EF00089B0060026F008FA00239846431C74D0D7
:102F000002AD04AF2FE0012C00D079E03A001B782D
:102F10002B7200236C6013552B683068BB4249D07C
:102F200032000832904258D033606B68B2687360E8
:102F3000049BB360002855D02860AA6000236B6012
:102F400003702868B84203D0AB68591C05F04CFCEC
:102F500043460133DBB200222C213000984626F094
:102F6000D3F9431C41D07368013098424ED832687F
:102F70002F6091461C1A81449C4200D91C004B468C
:102F8000002B26D001940F2CBDD90022280001A9C6
:102F900025F050FE019B2860AB602200494605F0F9
:102FA0000DFC0023019C2A686C6013552B68306867
:102FB000BB42B5D16A68002A06D0012A1BD039006D
:102FC00005F0FCFB6A68306800237260835428684F
:102FD000B4E7002C1FD13A009BE733606B68736045
:102FE000049BB36038002F60A8E7404609B0C0BC1E
:102FF000B946B046F0BD2B7A03706A683068E3E7E3
:103000003A00002C00D184E73800C6E702000349EB
:1030100003481BF037FA03481BF0D4F9A8B7041093
:1030200090B60410C8B60410F0B5C64600B582B01C
:103030001400060088461D0039F09EFD076839F02F
:103040009BFD0023089A036001A92000B047019B63
:103050000600A3421AD039F08FFD0368222B12D04C
:10306000002D02D0019B1C1B2C6039F085FD0368EC
:10307000002B04D0300002B080BCB846F0BD39F05F
:103080007BFD0760F6E740461BF0E4F940461BF085
:10309000B1F9C046F0B54F464646D646C0B547687A
:1030A00098B014AD040086681295002F00D1BEE0E0
:1030B0000C960F2E65D8012E00D06BE248213B788C
:1030C00002AA521813702B000022139612A89A55C8
:1030D000FFF708FF07001298A84204D0149B591C60
:1030E000039305F081FB261D0B2300223000AE491F
:1030F00026F0CEF8002853D1A668731E0A2E01D8F8
:1031000000F0B8FE0B3E676812959E4200D91E0083
:103110000C960F2E00D906E1012E00D0C9E04821FF
:10312000FB7A02AA521813702A00002313969355B3
:10313000129B6068AB4200D10CE122000C3290423D
:1031400000D117E16360139BE2680393A360149BB3
:10315000E360002800D113E112901492002313932E
:1031600003701298A84203D01499013105F03CFB7A
:1031700047230122E25418B0E0BCBA46B146A84643
:10318000F0BD00220CA912A825F054FD0C9B129052
:1031900014933200390005F011FB0C9E129B93E74B
:1031A000062300223000814926F072F8002845D11C
:1031B00047230222A668E254731E052E01D800F0B0
:1031C0001CFF063E676812959E4200D997E00C9658
:1031D0000F2E00D998E0012E00D0DFE0BB79482106
:1031E00002AA521813702A00002313969355129BBB
:1031F0006068AB424DD022000C32904200D1C3E057
:103200006360139BE2680393A360149BE360002850
:1032100000D1BFE012901492002313930370129810
:10322000A842A8D01499013105F0DEFAA3E72B00DB
:10323000002E00D148E75E481BF0C4F80F2300229F
:1032400030005C4926F024F8002838D147230322B7
:10325000A668E254731E0E2E01D800F0EFFE0F3E5A
:10326000676812959E4200D91E000C960F2E00D959
:1032700087E1012E00D03DE1FB7B482102AA5218D4
:1032800013702B00002213969A55129B6068AB4274
:10329000B1D1139A002A07D0012A00D159E129009F
:1032A00005F08CFA139A60680023A2608354129888
:1032B000B2E72A00002E00D137E728003BE01123B7
:1032C000002230003C4925F0E3FF002876D1472357
:1032D0000422A668E254731E102E01D800F0FCFEF2
:1032E000113E676812959E4200D928E10C960F2E78
:1032F00000D936E1012E00D052E17B7CBDE71E00F3
:103300000C960F2E00D866E700220CA912A825F013
:1033100091FC0C9B129014933200B91D05F04EFAEB
:103320000C9E129A60E700220CA912A825F082FCDC
:103330000C9B12901493390032000B3105F03EFAC9
:1033400000230C9E129A13969355129B6068AB4211
:1033500000D0F2E6139A002A07D0012A00D1F0E04B
:10336000290005F02BFA139A60680023A2608354A9
:103370001298F3E66360139B0393A360149BE360CE
:10338000129514AD2800E9E66360139B0393A360D4
:10339000149BE360129514AD28003DE72A00002E2F
:1033A00000D121E72800B7E7C0B70410CCB704105C
:1033B000C8B60410D4B70410E4B704100C230022DC
:1033C0003000CF4925F064FF002800D19FE00C2396
:1033D00000223000CB4925F05BFF002800D0E5E05B
:1033E000A3685A1E0B2B01D800F07CFE61680C3BD1
:1033F00088461E001295934200D916000C960F2E97
:1034000000D950E2012E00D040E2434648211B7B08
:1034100002AA521813702B00002213969A55129B81
:103420006068AB4200D147E222000C32904200D1EA
:103430009BE26360139BE2680393A360149BE360C9
:10344000002800D197E21290149200231393037086
:103450001298A84204D0149B591C039305F0C4F998
:10346000002F00D032E14723062267680EAEA56820
:10347000E2540C96002F00D1ABE212950F2D00D92B
:1034800093E2012D01D000F0EEFC30213B7802AA3E
:1034900052181370330000220D955A5590460C9F18
:1034A00039F06AFB0368994639F066FB43460A2205
:1034B000036005A938003DF023FE059B05009F42EF
:1034C00001D100F006FE39F057FB0368222B01D131
:1034D00000F0FCFD39F050FB0368002B00D173E2D3
:1034E0000C98E586B04200D145E60E99013105F011
:1034F0007BF940E62B00002E00D1C3E628003900FE
:1035000032000F3105F05AF90C9E129BBAE64723A0
:103510000522A668E254731E0C2E01D800F0D0FDDF
:103520000D3E676812959E4200D91E000C960F2E24
:1035300000D9DCE0012E00D0CCE07B7B4FE61E0002
:10354000D4E6473202AB9B181B780370139A60686D
:103550000BE7473202AB9B181B780370139A606825
:10356000A2E600220CA912A825F064FB0C9B129085
:10357000149339003200113105F020F90C9E129B92
:1035800080E600220CA912A825F054FB0C9B129097
:103590001493B4E72B00002E00D195E52800F8E540
:1035A0002B00002E00D16DE62800E2E70C2300225C
:1035B0003000554925F06CFE002800D0A6E0A36835
:1035C0005A1E0B2B01D800F08DFD61680C3B88461C
:1035D0001E001295934200D916000C960F2E00D9AA
:1035E000DAE1012E00D0CAE1434648211B7B02AA42
:1035F000521813702A00002313969355129B60688B
:10360000AB4200D1E9E122000C32904200D188E2C5
:103610006360139BE2680393A360149BE36000283C
:1036200000D184E212901492002313930370129835
:10363000A84204D0149B591C039305F0D5F8002F21
:1036400044D147230722676808AEA568E25406966E
:10365000002F00D1ABE212950F2D00D988E2012D89
:1036600001D000F0C3FC3B7802AA1376330000229D
:1036700007955A559046069F39F07EFA0368994699
:1036800039F07AFA43460A22036012A938003DF065
:1036900037FD129B05009F4201D100F01AFD39F061
:1036A0006BFA0368222B01D100F010FD39F064FAA7
:1036B0000368002B00D156E20698E586B04200D19F
:1036C00059E50899013105F08FF854E547230022A8
:1036D000E25450E52A00002E00D185E5280039008B
:1036E00032000D3105F06AF80C9E129A7CE500223A
:1036F0000CA912A825F09EFA0C9B12901493EEE7E9
:10370000F8B7041008B8041018B804100F230022EA
:103710003000BA4925F0BCFD002800D0DCE0A368E9
:103720005A1E0E2B01D800F084FC61681295894660
:103730000F21494288469844904500D99046434617
:103740000C930F2B00D905E2012B00D0F3E14B467F
:103750004821DB7B02AA521813702B0042464146D7
:10376000139200225A546068129A0300AA4200D1B0
:103770000DE221000C31884200D142E26260139ACE
:10378000E1680392A260149AE260002800D13EE250
:1037900012901491002213921A701298A84204D029
:1037A000149B591C039305F01FF8022F00D132E23D
:1037B000032F00D155E2042F88D10A239A4652469E
:1037C0003D33E2542C210022300025F09DFD0022E3
:1037D00003008146310012A825F002FE884B894F74
:1037E000984653460093414600233800129AFFF74B
:1037F0001BFCE0861298A84204D0149B591C03932A
:1038000004F0F2FF4A46002130000132FEF736FC98
:1038100000222C21300025F077FD0022030031002A
:10382000814612A825F0DCFD0A23414600933800AA
:103830000023129AFFF7F8FB20871298A84204D0C1
:10384000149B591C039304F0CFFF4A460132002118
:103850003000FEF713FCA36812959C46626861680D
:10386000624412A8FEF764FC12A8FFF77FF9402318
:103870004122E05403041B0EA35442230002000E15
:10388000E0541298A84200D0CCE474E42B00002E3F
:1038900000D1C1E52800414632000C3104F08EFF12
:1038A0000C9E129BB8E500220CA912A825F0C2F9C3
:1038B0000C9B12901493EEE7139A002A07D0012A6A
:1038C00000D196E1290004F079FF139A6068002383
:1038D000A26083541298B8E50923002230004A49B7
:1038E00025F0D6FC002800D090E047230B22E254BC
:1038F000A3685A1E082B00D8A6E3093B1E00676880
:103900001295934200D916000C960F2E00D990E123
:10391000012E00D083E148217B7A02AA521813704D
:1039200000220C9B12991393CA54129B6068AB42FD
:1039300000D187E122000C32904200D183E2636023
:10394000139BE2680393A360149BE360002800D1FB
:103950007FE2129014920023129A1393137012981C
:10396000A84200D05EE4FFF706FC6360139B03935C
:10397000A360149BE360129514AD280065E52A004E
:10398000002E00D137E62800414632000C3104F009
:1039900015FF0C9E129A2EE600220CA912A825F003
:1039A00049F90C9B12901493EEE7002212A90CA87F
:1039B00025F040F9129B0C900E932A00390004F078
:1039C000FDFE129D0C9B66E539F0D6F84B46036070
:1039D00086E5002D00D15DE52DE4139A002A07D07D
:1039E000012A00D137E2290004F0E8FE139A60684A
:1039F0000023A2608354129816E6C04628B804102B
:103A0000A0B704100111041038B8041012230022CA
:103A10003000A54925F03CFC002800D0CCE0A3688C
:103A200012223100013B12A825F0DAFC300012A965
:103A3000FEF748FB1298A84204D0149B591C03932C
:103A400004F0D2FE032F00D1BEE2042F00D1A7E282
:103A5000052F00D03AE647230F222C21E2543000F4
:103A6000002225F051FC002203003100814612A8FB
:103A700025F0B6FC8D4B8E4F98460A2341460093A5
:103A800038000023129AFFF7CFFAE0861298A84276
:103A900004D0149B591C039304F0A6FE4A4600214F
:103AA00030000132FEF7EAFA00222C21300025F026
:103AB0002BFC002203003100814612A825F090FC67
:103AC0000A234146009338000023129AFFF7ACFA0C
:103AD00020871298A84204D0149B591C039304F029
:103AE00083FE4A46002130000132FEF7C7FA002269
:103AF0002C21300025F008FC002203003100814613
:103B000012A825F06DFC0A234146009338000023DB
:103B1000129AFFF789FA60871298A84200D08FE6C0
:103B200093E66360139B0393A360149BE360129579
:103B300014AD280078E542462B00002A00D10DE69E
:103B40002800494642460F3104F038FE0C9B984647
:103B5000129B03E600220CA912A825F06BF80C9B1F
:103B600012901493EDE739F007F84B460360A3E594
:103B7000002212A906A825F05DF8129B0690089372
:103B80002A00390004F01AFE129D069B6FE5139A75
:103B9000002A06D0012A00D1FBE1290004F00EFE24
:103BA00060680022139BA360C254129BF2E5002DB3
:103BB00000D15BE5FFF73FFB0923002230003D49C0
:103BC00025F066FB002877D147230C22E254A36836
:103BD000033A013B310012A825F002FC300012A983
:103BE000FEF770FA1298A84201D0FFF71BFBFFF70F
:103BF000C2FA473202AB9B181B780370139A6068B5
:103C000065E6139B62600393A360149BE3601295C7
:103C100014AD2B00BEE547230822E2541BE6002E1C
:103C200000D17DE6280039003200093104F0C6FDDC
:103C300076E600220CA912A824F0FCFF0C9B12903F
:103C40001493F0E7139A002A06D0012A00D1E9E183
:103C5000290004F0B3FD60680022139BA360C254E6
:103C600079E647230922E2542C210022300025F076
:103C70004BFB002203003100070012A825F0B0FB27
:103C80000A23129A0093094900230948FFF7CCF947
:103C9000E0861298A84204D0149B591C039304F0A8
:103CA000A3FD7A1CD3E5C04644B80410A0B70410A5
:103CB0000111041058B804100C2300223000E5490B
:103CC00025F0E6FA002800D0DAE0A3680C223100E3
:103CD000013B12A825F084FB300012A9FEF7F2F98F
:103CE0001298A84204D0149B591C039304F07CFD45
:103CF000052F00D1E0E1072F01D0FFF73CFA472361
:103D000011222C21E2543000002225F0FDFA00227D
:103D100003003100814612A825F062FBCE4BCF4F45
:103D200098460A234146009338000023129AFFF771
:103D30007BF9E0861298A84204D0149B591C039387
:103D400004F052FD4A46002130000132FEF796F998
:103D500000222C21300025F0D7FA00220300310088
:103D6000814612A825F03CFB0A2341460093380007
:103D70000023129AFFF758F920871298A84204D01E
:103D8000149B591C039304F02FFD4A460132002175
:103D90003000FEF773F9A36812959C46626861686B
:103DA000624412A8FEF7C4F912A8FEF7DFFE402312
:103DB0004122E05403041B0EA35442230002000ED0
:103DC000E0541298A84204D0149B591C039304F0A9
:103DD0000BFD00222C21300025F096FA0021421C18
:103DE0003000FEF74BF900222C21300025F08CFA30
:103DF0000021421C3000FEF741F900222C21300046
:103E000025F082FA0021421C3000FEF737F9A36842
:103E100012959C4662686168624412A8FEF788F9B0
:103E200012A8FEF7A3FE4323E05403040002433428
:103E3000000EA07012981B0E6370A84201D0FFF70D
:103E4000F1F9FFF798F96360139B0393A360149B48
:103E5000E36012957FE5473202AB9B181B78037035
:103E6000139A6068C4E53300002D01D1FFF713FBFE
:103E70003000A2E533000B2279497A481AF002FBA0
:103E80000F2300223000784925F002FA002800D0E4
:103E90009DE0A3680F223100013B12A825F0A0FA93
:103EA000300012A9FEF70EF91298A84204D0149B14
:103EB000591C039304F098FC062F00D1DAE0082F78
:103EC00001D0FFF703FC472313222C21E2543000DA
:103ED000002225F019FA002203003100814612A8C1
:103EE00025F07EFA5C4B5D4F98460A2341460093CD
:103EF00038000023129AFFF797F8E0861298A8423C
:103F000004D0149B591C039304F06EFC4A46002114
:103F100030000132FEF7B2F800222C21300025F0EB
:103F2000F3F9002203003100814612A825F058FA67
:103F30000A234146009338000023129AFFF774F8D1
:103F400020871298A84204D0149B591C039304F0B4
:103F50004BFC4A46002130000132FEF78FF8002268
:103F60002C21300025F0D0F90022030031008146D9
:103F700012A825F035FA0A234146009338000023A1
:103F8000129AFFF751F860871298A84200D0F7E61E
:103F9000FBE602AB47329B181B780370606800E6B3
:103FA00047230E222C21E2543000002225F0ACF9E8
:103FB000002203008146310012A825F011FA264B99
:103FC000264F98460A230DE447230D224BE60A2389
:103FD00000223000254925F05BF9002813D1472342
:103FE0001422E254A3680A3A013BF3E53300002DA2
:103FF00001D1FFF73CFB3000C2E5330018491948F6
:1040000004321AF03FFA0A2300223000184925F042
:104010003FF900286BD147231522E254A3680B3ADD
:10402000013BD7E502AB47329B181B7803706068F1
:1040300012E60F220A490B481AF024FA3300084905
:1040400008480C321AF01EFA0922054905481AF0F0
:1040500019FAC04664B80410A0B704100111041086
:10406000A8B7041090B6041074B8041084B80410F3
:1040700090B80410472312222C21E2543000002271
:1040800025F042F9002203003100070012A825F0B4
:10409000A7F90A23129A0093E6490023E648FEF79F
:1040A000C3FFE0861298A84204D0149B591C0393C6
:1040B00004F09AFB7A1C6AE647231022E2546AE66F
:1040C0003300DE49DE4808321AF0DCF9D9481AF02C
:1040D000C1F9D8481AF08EF93300D849D8480D32C2
:1040E0001AF0D0F90C22D549D5481AF0CBF90E2395
:1040F00000223000D34925F0CBF8002806D1472311
:104100001622E254A368083A013B63E5102300221B
:104110003000CD4925F0BCF8002806D147231722EE
:10412000E254A368073A013B54E50B230022300018
:10413000C64925F0ADF8002800D06AE1A3680B223B
:104140003100013B12A825F04BF9300012A9FDF710
:10415000B9FF1298A84204D0149B591C039304F091
:1041600043FB082F00D18EE0062F01D0FFF7AEFAF7
:10417000472319222C21E2543000002225F0C4F8F4
:10418000002203003100814612A825F029F9A94B2D
:10419000A94F98460A234146009338000023129AFB
:1041A000FEF742FFE0861298A84204D0149B591CE7
:1041B000039304F019FB4A46002130000132FDF759
:1041C0005DFF00222C21300025F09EF80022030024
:1041D0003100814612A825F003F90A2341460093D5
:1041E00038000023129AFEF71FFF20871298A8427A
:1041F00004D0149B591C039304F0F6FA4A4600219C
:1042000030000132FDF73AFF00222C21300025F06A
:104210007BF8002203003100814612A825F0E0F867
:104220000A234146009338000023129AFEF7FCFE51
:1042300060871298A84204D0149B591C039304F081
:10424000D3FA4A46002130000132FDF717FF002261
:104250002C21300025F058F800220300310081465F
:1042600012A825F0BDF80A23414600933800002328
:10427000129AFEF7D9FEA0871298A84201D0FFF744
:10428000DFFAFFF7E2FA472318222C21E25430002C
:10429000002225F039F8002203003100814612A8DF
:1042A00025F09EF8634B644F98460A2341460093DD
:1042B00038000023129AFEF7B7FEE0861298A84253
:1042C00004D0149B591C039304F08EFA4A46002133
:1042D00030000132FDF7D2FE00222C21300025F003
:1042E00013F8002203003100814612A825F078F867
:1042F0000A234146009338000023129AFEF794FEE9
:1043000020871298A84204D0149B591C039304F0F0
:104310006BFA4A46002130000132FDF7AFFE002261
:104320002C21300024F0F0FF0022030031008146F0
:1043300012A825F055F80A234146009338000023BF
:10434000129AFEF771FE60871298A84204D0149B5F
:10435000591C039304F048FA4A4600213000013208
:10436000FDF78CFE00222C21300024F0CDFF00222E
:1043700003003100814612A825F032F80A23414695
:10438000009338000023129AFEF74EFEA087129881
:10439000A84204D0149B591C039304F025FA4A4602
:1043A000002130000132FDF769FE00222C2130008F
:1043B00024F0AAFF002203003100814612A825F054
:1043C0000FF80A234146009338000023129AFEF7A3
:1043D0002BFEE0871298A84204D0149B591C03932B
:1043E00004F002FA4A46002130000132FDF746FE91
:1043F000174904230022300024F04AFF011E2BD16C
:10440000462301223000E2540432FDF737FEFFF765
:1044100022FA0A23002230000E4924F039FF002836
:1044200027D147231A22E254A368103A013BFFF731
:10443000D1FBC046A0B7041001110410A8B70410A6
:1044400090B604109CB80410ACB80410C0B80410A6
:1044500018B70410CCB804104849052300223000D6
:1044600024F016FF011E14D047230022E254FFF768
:10447000F2F90A2300223000414924F009FF002804
:104480000FD147231B22E254A368113A013BFFF7E7
:10449000A1FB46230622E0543000FDF7EFFDFFF7B5
:1044A000DAF90C2300223000364924F0F1FE00280E
:1044B00002D147231C22B6E70B23002230003249E9
:1044C00024F0E6FE002801D0FFF700F9A3680B22D4
:1044D0003100013B12A824F083FF300012A9FDF740
:1044E000F1FD1298A84204D0149B591C039304F0C8
:1044F0007BF9012F01D0FFF7E9F847231D222C217A
:10450000E2543000002224F0FFFE002203003100BC
:10451000070012A824F064FF0A23129A00931B4993
:1045200000231B48FEF780FDE0861298A84203D0C6
:104530001499013104F058F9002130007A1CFDF77C
:104540009DFD042300223000124924F0A1FE431CEB
:1045500004D046230122E254FEF70DFE052300227B
:104560003000064924F094FE431C01D1FFF7AEF859
:1045700046230022E254FEF7FEFDC04620B7041099
:10458000D8B80410E4B80410F4B80410A0B70410AC
:104590000111041018B7041030B50023040083B0D3
:1045A000009300211B4B226A1C3024F0EBFCD0232B
:1045B0001B061B6DDB0708D43423E35C002B1DD1E5
:1045C0002000FDF7E9FD03B030BD06F0BFFE050099
:1045D000201D290024F070FB002D0CD02B00286832
:1045E0000833984203D0AB68591C04F0FDF8182139
:1045F000280004F0F9F834230122E2542000FEF7E9
:1046000049FD3423E35C002BDAD02000FEF752F999
:10461000D6E7C0464CEC041010B5024807F0DEFBAC
:1046200010BDC046A43A0020094A830094464022A7
:10463000634410B51C68C0006240C024144080224E
:10464000520113431C60034B9C466044416010BD03
:1046500004C00140004001400123D02283401206E3
:1046600093629361094A8300944640226344196827
:10467000C0004A40C02111408022520113431960FA
:10468000034B9C46052360444360704704C00140CF
:1046900000400140EFF3108072B6034A1368002B0C
:1046A000FCD0BFF35F8F70472C0100D0BFF35F8F4A
:1046B0000022024B1A6080F3108870472C0100D052
:1046C00070B5EFF3108C72B60D4D2B68002BFCD03B
:1046D000BFF35F8F0724CB08C618C05C01230C40D2
:1046E000A3401C000440034207D103433370BFF3CF
:1046F0005F8F2C608CF3108870BD100001F03EF8C5
:104700002C0100D0F8B54746CE46884680B5EFF379
:10471000108C72B6214D2C68002CFCD0BFF35F8F3B
:104720009A422CD8D4080727055D061901241740A2
:10473000BC402C421FD007210127894609E0D4083C
:10474000055D06194C4639001440A1400C00294271
:1047500011D001329342F2D201204042BFF35F8F69
:1047600000220E4B1A608CF3108800280FDBC0BCAF
:10477000B946B046F8BD2C4310003470EEE7BFF3E5
:104780005F8F00232B608CF310880120404243464A
:10479000002BECD0089800F0F1FFC0462C0100D0AF
:1047A000024B18688007C00F7047C04600C0064023
:1047B0000021044B044ABFF35F8F02C39342FAD136
:1047C0007047C046000100D0800100D0044A107834
:1047D000431CDBB2172B00D9102313707047C0465F
:1047E000A414002000B5054B83B0010000931822EB
:1047F0001F230348FFF786FF03B000BDCCB90410A8
:104800006440002083680B4810B5844661446244CC
:10481000090112019A18591854684B6801209C42EA
:1048200001D802D00020C0B210BD12680B689A42B5
:10483000F9D8F7E7FFFFFF0F0A4B1968EFF3108075
:1048400072B60A68002AFCD0BFF35F8F1B68BFF303
:104850005F8F00221A6080F3108840BF0020002183
:104860007047C04680450020F8B557464E4645463D
:10487000DE46E0B599460CAB1C780DAB1B78060004
:1048800090469A460768002C11D1BC7B002C42D080
:1048900065003B682D19033D59194B78BB73002BFC
:1048A00000D1FB7300238B704B700B7004E065002C
:1048B0003B682D19033D5919B2682A4B944642466C
:1048C000E3181B0163441A604A465A600A9A9A60C8
:1048D0000B9ADA6000238B704B700B707B7B9B46CE
:1048E000002B2BD022005946B8687B6898473A685D
:1048F000002816D05B4658465B005B445519033BC5
:10490000A870D118D35C002B00D06B705B460C7084
:104910007B73A34513D0F0BCBB46B246A946A04664
:10492000F8BD5B465B005B44033BD3189C70511998
:10493000525D002A00D05A705B460B707C73424671
:104940004B46307D00F0CEFB051E06D05346002BB3
:1049500003D12100306800F01BFE0E9B002BDAD043
:104960001D70D8E7FFFFFF0FF0B5DE464E465746F5
:1049700045460023E0B58DB00A936B4B8200D358B7
:104980000B90994600239B464B46079300F030FB63
:10499000079C06000F006268EFF3108572B613687B
:1049A000002BFCD022000794BFF35F8F2468637B49
:1049B0009946002B67D092685C4B90464B441B0194
:1049C000984443461A685B6810001900801BB9417F
:1049D00000295FDD0B9800F085FB00230026984638
:1049E00000279A46079C6368BFF35F8F5A461A6098
:1049F00085F310885346002B08D10028C6D10DB08E
:104A0000F0BCBB46B246A946A046F0BD0A9B414653
:104A100018024B461843D047089009916268EFF39B
:104A2000108572B61368002BFCD00794BFF35F8F1C
:104A30000899099A002A48DB114303D0079B1B6998
:104A4000002B5DD1079B1B68D97B002907D04A004A
:104A5000521819688C4649466244033A51704A46D6
:104A6000DA734B46079A013BD168CA5C0132CA54DB
:104A70005B46079A13615368BFF35F8F5A461A600B
:104A800085F3108882E700230026984600279A467F
:104A90000020A7E7002901D100289BD10021200098
:104AA00000F0F8FC43461E685F689B68079A9A46C8
:104AB0004346DB689846D3684B44013B1B780A9316
:104AC0001B020343136100208CE72369002BB9D03C
:104AD00033003C005B1A94411A002300A74219D806
:104AE0009F421BD0594604910121039149460291EE
:104AF00041460191514607980091FFF7B5FEB7E78F
:104B000000F076FA089A099B06000F0092197B4183
:104B10009942E5D901225242D317E3E79642E1D9FF
:104B200001225242D317DDE718450020FFFFFF0F97
:104B3000F8B557464E464546DE46E0B5404D8146FF
:104B40008A466A68EFF3108872B61368002BFCD0AF
:104B5000BFF35F8F2E68B47B002C39D067003368B9
:104B60003F19033FDB195A78B273002A00D1F27360
:104B7000A968344A8C464946A21812016244116061
:104B800051465160304991600021D160997059704F
:104B90001970737B9B46002B35D022001900B0683A
:104BA000736898473268002820D05B4658465B00FF
:104BB0005B44D719033BB870D118D35C002B00D0ED
:104BC0007B705B460C7073735C451DD0002626E03D
:104BD0006B68BFF35F8F1C6088F310880120404230
:104BE000F0BCBB46B246A946A046F8BD5B465B009A
:104BF0005B44033BD3189C70D119D25D002A00D0CE
:104C00005A705B460B7074734A465346287D00F019
:104C100069FA061EDAD02100286800F0B9FCEB68BA
:104C20001B19013B19786B68BFF35F8F00221A6074
:104C300088F310880020002ED2D108022043CFE74D
:104C4000A8140020FFFFFF0F3948001010B5124CC8
:104C50006368002B04D00A21104800F0D1FA10BD7F
:104C600023000F4A1021206800F032FB032000F0DF
:104C7000B3F9032000F0A6FA03200A4900F0ECF98A
:104C8000FFF7A4FD084B9C46032360442375074BA4
:104C900080006060DC60DEE7A81400208045002012
:104CA00005480010694900104000003418450020F4
:104CB00000487047A8140020F0B557464E464546B8
:104CC000DE46E0B585B0019310AB1B780600039378
:104CD00000239A46984600927268EFF3108972B6E4
:104CE0001368002BFCD0BFF35F8F3568AC7B002CC2
:104CF00049D067002B683F19033FDB195A78AA7324
:104D0000002A00D1EA73B1684F4A8C460098019995
:104D1000A21812016244106051600E9991600F99BF
:104D2000D16042469A705A701A706B7B9B46002B7A
:104D300045D022001900A8686B6898472A680028A7
:104D400030D05B4658465B005B44D719033BB870D4
:104D5000D118D35C002B00D07B705B460C706B735A
:104D60005C452DD0F3681B19013B18787368BFF3BD
:104D70005F8F42461A6089F310885346002B2CD16E
:104D80000002204307E07368BFF35F8F1C6089F364
:104D900010880120404205B0F0BCBB46B246A9468F
:104DA000A046F0BD5B465B005B44033BD3189C70A0
:104DB000D119D25D002A00D05A705B460B706C731B
:104DC000307D009A019B00F08DF982460028C9D001
:104DD0002100306800F0DCFBC4E7039B002B30D0DF
:104DE0000E9B00200F999847030004000D000B4311
:104DF00027D000290DDA0098019902000B00121B40
:104E0000AB41994213D818D000920193039B9A4664
:104E100062E700F0EDF802000B00A4185D41009479
:104E20000195A94203D8F1D100998A42EED9012314
:104E30005B42DC1700930194E8E700999142E3D9C3
:104E4000F5E70020A7E7C046FFFFFF0FF8B5CE4605
:104E5000474680B506000C00FFF76AFE00280CDC10
:104E60002D4B0020596A8C4203D89B6A0130B34213
:104E700045D3C0BCB946B046F8BD20BF274D6A68CF
:104E8000EFF3108772B61368002BFCD0BFF35F8F6F
:104E90002B68C1B29C465B7B8B4235D0FF2303401D
:104EA0005A00914662461268994490464A464244E6
:104EB000033A9278002A1DD0EA68000A90464344DB
:104EC000013B1B78C0B2834221D06B68BFF35F8F78
:104ED00000221A6087F310880F4A0020536A9C4210
:104EE000C7D8926A0130B242C3D2E01A421E904142
:104EF000C0B2BEE72B699842E7D12A61E5E7601AA4
:104F0000431E9841C0B2B4E7FF230340D4E7604694
:104F100000F03EFBD9E7C04600400540A814002041
:104F2000F0B5D6464F464646C0B5EFF305833F225F
:104F3000134018001038EFF3108C72B6204D2A6819
:104F4000002AFCD0BFF35F8F0122110081401D4C6D
:104F5000884661631C4917000E788A463100C140BB
:104F60000F400A4209D1BFF35F8F2F608CF3108886
:104F7000E0BCBA46B146A846F0BD14498200646A56
:104F800051588C420FD3124BD25843469E4353463E
:104F90001E70BFF35F8F00232B608CF31088002AF4
:104FA000E6D09047E4E70B4A9B00904643441A68DA
:104FB0001A60BFF35F8F00232B608CF31088D7E754
:104FC000280100D000400540B54500208C45002058
:104FD000543F0020D03F054010B50100024A03486D
:104FE000FFF76EFB10BDC046F0B90410B1450020BC
:104FF000034B596A0A00986A596A8A42FAD1704783
:105000000040054070B504000D00124A536A1900B3
:10501000966A536A8B42FAD13000190024184D4128
:10502000AB4211D80ED02B000A494A6A9A42FCD3EF
:1050300007D1084A02E0516A994202D1916AA1421D
:10504000F9D370BDA642EED9012301246442E517CD
:105050005B42E9E70040054070B504000D00EFF346
:10506000108672B61A4A1368002BFCD0BFF35F8F0C
:10507000002D1BD0200000F029FD164981420AD0E6
:10508000200000F02BFD0121200000F0F9FC01239D
:10509000A340114A1360114BA400E550BFF35F8F8A
:1050A00000220B4B1A6086F3108870BD0B4BA200D8
:1050B000D5500122A2400A4920000B7893430B707F
:1050C000044900F035FD0021200000F0D9FCE5E79F
:1050D000280100D0214F001038600540543F0020C7
:1050E000B5450020F0B54F46D6464646C0B5070048
:1050F0002F4C616A0D00A66A616AA942FAD18B42FF
:1051000008D805D00120E0BCBA46B146A846F0BD9B
:10511000B242F7D9EFF3108A72B626480168002927
:10512000FCD0BFF35F8F0125BD402349204C88464A
:10513000097889462943C9B28C46414660460870C1
:10514000391D1E48890065630A51B9000B50216A58
:105150000020294219D0616A0800A66A616A81426A
:10516000FAD18B4219D801D1B24216D8CC451DD004
:105170000F4B1F201D625D6301230740BB40104A97
:105180001E38136043464A461A70BFF35F8F0022F1
:10519000084B1A608AF31088B5E70020BFF35F8FD1
:1051A0000022044B1A608AF31088ACE70120ECE778
:1051B00000400540280100D0B54500208C45002066
:1051C00080E200E0EFF3108C72B60A490B68002B06
:1051D000FCD0BFF35F8F01238340074A0748136267
:1051E00002789A430270BFF35F8F00230B608CF349
:1051F00010887047280100D000400540B5450020C8
:10520000024B9C46614489000160704740000034B5
:1052100010B50400FFF7DAFA01002000FFF7F0FFF5
:10522000FF23A380BFF35F8F10BDC04610B50400FD
:10523000FFF7CCFA01002000FFF7E2FF01235B42F9
:10524000A380BFF35F8F10BD10B504000120FFF7EE
:10525000C9FA044B9C46604480002060BFF35F8F16
:1052600010BDC0464000003470B5050014001600A3
:10527000002915D00C00002A12D080686B6898476E
:10528000296800280ED073009B196200033B121995
:10529000CB18033A9C7088188A5C002A15D10670D6
:1052A000200070BD63001B197200033B9219CB18DC
:1052B000033A9E7088188A5C002A02D10470340078
:1052C000EEE75A7004703400EAE75A700670E7E7B8
:1052D00030B583600023CCB2437301330473426062
:1052E0008373C4730D000068012C06D9421C01337E
:1052F000DBB2137003329C42F9D1FF2129404B00ED
:105300005918002340180338437030BDF8B5CE4615
:10531000474606000C0080B5002907D04D00036801
:105320006D18033D5A195778002F04D12000C0BCD6
:10533000B946B046F8BD7900C919033988464344D7
:105340005978894600215970517073683A002100DC
:10535000806898473368002814D042469A189470A1
:1053600059195B5D002B00D053700F702700494620
:105370003000FFF7CBFF390002003000FFF774FF69
:105380000400D3E7424641465D19AF709A185B5C52
:10539000002B00D06B701470E9E7C046F0B557469B
:1053A0004546DE464E46E0B50D006B0001685B19D0
:1053B000DF1E0400C85D83B00192CA1900284CD0DA
:1053C00043001B18033BCB185E78B446002E16D161
:1053D000019E002E3ED0E67B002E04D073009B1968
:1053E000CB18033B5D70E57300282FD10023537069
:1053F00003B0F0BCBB46B246A946A046F0BD720061
:105400006244033A89184A78904600224A709146CD
:105410005A70010032002000FFF726FF4346824603
:10542000002B07D05B0021684344033BCB185A781C
:10543000002A16D1424651462000FFF715FF216889
:10544000019BCA19002BC6D10028CFD043001B18DE
:10545000033BCB1800219970C8E7019B002BBAD100
:10546000C4E7500080180338091848788346484636
:105470004870587041462000FFF7F6FE59468046B6
:105480002000FFF743FF414602002000FFF7ECFE3B
:105490008046CFE7F0B557464546DE464E46E0B576
:1054A00083B00191457B04006B0000685B19DF1E2F
:1054B000C15DC21900294ED04B005B18033BC318D5
:1054C0005E78B446002E18D1019E002E40D0E67BB7
:1054D000002E04D073009B19C318033B5D70E57365
:1054E000002931D1002328005370617303B0F0BC50
:1054F000BB46B246A946A046F0BD72006244033ADC
:105500008018427890460022427091465A702000DE
:105510003200FFF7A9FE43468246002B07D05B000E
:1055200021684344033BCB185A78002A17D14246DE
:1055300051462000FFF798FE019B01002068C21928
:10554000002BC4D10029CDD04B005B18033BC318FE
:1055500000209870C6E7019B002BB8D1C2E750002D
:1055600080180338091848788346484648705870B0
:1055700041462000FFF778FE594680462000FFF79D
:10558000C5FE414602002000FFF76EFE8046CEE7D2
:1055900070B5040000292CD0437B8B422ED00568C7
:1055A00048004018033828188278002A21D0530078
:1055B0009B18033BEA5CEE188A4202D11BE0002AEA
:1055C00008D053009B18033BEB185A788A42F6D157
:1055D00042785A7000230122837043702000FFF745
:1055E000DDFE617B02002000FFF73EFE60730120BC
:1055F00000E0002070BD43783370EBE70122190012
:10560000FFF7CCFE60730120F4E7C046F8B5304ADE
:10561000304B31491A60314A314B1A6014008B68A3
:105620009C43FBD12F4D304EB54208D2013E761B34
:10563000B60808CD984723000134B342F9D100F0F1
:10564000BBF82A4A264B1A60234A9368DB43DB01E6
:10565000DD09002BF9D14022254B264C264F9A67B5
:105660005A671A67DA66BC4215D2013F3F1B002613
:10567000FF0806E0FFF7DAFD0834731CBE420AD0CB
:105680001E0063792000002BF4D1FFF7C1FD083420
:10569000731CBE42F4D1194E194CC022A1683000CF
:1056A00003F08CF8A660FFF783F800F075FBFFF7B6
:1056B000CDFA144C144EB44208D2013E361BB60843
:1056C00008CC98472B0001359E42F9D1F8BDC04661
:1056D000BFCDFBFE00E0004000C00040FE7F3C006C
:1056E00000F000404020002050200020FFFFFF017C
:1056F00000F0014030200020402000200000002069
:1057000000ED00E0502000207C20002000BEFDE7DE
:10571000094A03001068002805D00849C3188B42C5
:1057200007D81360704706480449C31810608B42BD
:10573000F7D901204042F5E7044100200000042091
:10574000B845002000BEFDE710B50C0082B019007E
:10575000002A09D0064B019200930200230005485D
:1057600001F0CAFE00BEFDE7034B1A00F3E7C04696
:1057700014BA041024BA04104CEC04100FB400B591
:10578000084883B003F010F9049B002B07D005A94B
:105790001800019101F0D0FE034803F005F900BEA6
:1057A000FDE7C04654BA04104CF8041010B5014887
:1057B000FFF7E4FF64BA041030B50C2083B000F0AA
:1057C0005BFBFEF7EDFF00280ED0944B944A1A6065
:1057D0005A609A60DA601A615A619A61DA611A62F3
:1057E000904A5A6203B030BD8F4CA06700F098FB1E
:1057F00001228E4B1A60636C012BFCD103228C4B6F
:105800001A60894A936B012BFCD102240121894A39
:1058100089480533009400F0DBFA0523874A01210B
:105820008748009400F0D4FA864B5A68FF2A02D8C1
:10583000802252005A608022784C7D4B21691201EF
:10584000804D1A60002905D0606901F0EFFE01303B
:105850000138FDD1E0217B4B02201A6811408022E3
:1058600052012A4311601968484003210140116028
:1058700004219A681142FCD08022802192012A439F
:1058800009011160802252005A606F4B23616F4BF7
:105890005968FF2900D85A600321644A6B4B116094
:1058A00002399A681142FCD0E0201A681040802228
:1058B00052011A4310601868484003210140022039
:1058C000116062498A681042FCD080229201134321
:1058D000802212011A6080225D4B52004A6063618F
:1058E0005C4B5968FF2900D85A6080225A4BE16905
:1058F0001201584D1A60002905D0606901F096FE2A
:1059000001300138FDD1E02252490B681A40802352
:105910005B012B431A60802380229B012B431201E1
:105920001A6080223E4B52004A60E3614B4B59683B
:10593000FF2900D85A608022494B216A1201474D45
:105940001A60002905D0606901F070FE013001384D
:10595000FDD1E02241490B681A4080235B012B43B3
:105960001A60802380229B012B4312011A6080233E
:1059700080225B004B602A4BD2022362394B59686C
:10598000914200D25A608022374B616A1201354D34
:105990001A60002905D0606901F048FE0130013825
:1059A000FDD1E0222F490B681A4080235B012B4375
:1059B0001A60802380229B012B4312011A608023EE
:1059C000DB024B60174B6362284B5A68FF2A02D8F0
:1059D000802252005A608022254BA1691201234D7A
:1059E0001A60002905D0606901F020FE01300138FD
:1059F000FDD1E0221D490B681A4080235B012B4337
:105A00001A60802380229B012B4312011A6080239D
:105A10005B004B600E4BA361E4E6C046684000208B
:105A2000006CDC021BB70000008000403CB000406E
:105A300030B00040002F68590080024000389C1CA4
:105A400000C0024030800040001BB7003C80004096
:105A5000405973075480004054B0004060800040BB
:105A600060B000406C8000406CB000404880004056
:105A700048B00040014B8000C0587047684000208B
:105A800001238340002904D0034A1360034A1360B2
:105A90007047034A1360FBE780E200E000E100E0AA
:105AA00080E100E001228240034B1B6813405A1E34
:105AB0009341D8B27047C04600E100E00123834023
:105AC000014A13607047C04600E200E0024B10300C
:105AD0009B688000C058704700ED00E070B50D0075
